{
  "contractName": "Nabunomics",
  "abi": [
    {
      "inputs": [],
      "payable": false,
      "stateMutability": "nonpayable",
      "type": "constructor"
    },
    {
      "constant": true,
      "inputs": [
        {
          "internalType": "uint256",
          "name": "",
          "type": "uint256"
        }
      ],
      "name": "members",
      "outputs": [
        {
          "internalType": "address",
          "name": "",
          "type": "address"
        }
      ],
      "payable": false,
      "stateMutability": "view",
      "type": "function"
    },
    {
      "constant": true,
      "inputs": [],
      "name": "membersCount",
      "outputs": [
        {
          "internalType": "uint256",
          "name": "",
          "type": "uint256"
        }
      ],
      "payable": false,
      "stateMutability": "view",
      "type": "function"
    },
    {
      "constant": true,
      "inputs": [
        {
          "internalType": "uint256",
          "name": "",
          "type": "uint256"
        }
      ],
      "name": "pubGenomes",
      "outputs": [
        {
          "internalType": "uint256",
          "name": "id",
          "type": "uint256"
        },
        {
          "internalType": "string",
          "name": "seq",
          "type": "string"
        },
        {
          "internalType": "address",
          "name": "owner",
          "type": "address"
        },
        {
          "internalType": "string",
          "name": "source_type",
          "type": "string"
        }
      ],
      "payable": false,
      "stateMutability": "view",
      "type": "function"
    }
  ],
  "bytecode": "0x608060405234801561001057600080fd5b506060604051806109e001604052806109af81526020016109146109af9139905060606040518060400160405280600b81526020017f686f6d6f2073617069656e000000000000000000000000000000000000000000815250905060006001905061008283838361008a60201b60201c565b5050506104ef565b80156101e357600160008154600101919050819055506100a8610338565b6040518060a001604052806003546001540181526020018581526020013373ffffffffffffffffffffffffffffffffffffffff16815260200184815260200160006040519080825280602002602001820160405280156101175781602001602082028038833980820191505090505b50815250905080600080600154815260200190815260200160002060008201518160000155602082015181600101908051906020019061015892919061037d565b5060408201518160020160006101000a81548173ffffffffffffffffffffffffffffffffffffffff021916908373ffffffffffffffffffffffffffffffffffffffff16021790555060608201518160030190805190602001906101bc92919061037d565b5060808201518160040190805190602001906101d99291906103fd565b5090505050610333565b600360008154600101919050819055506101fb610338565b6040518060a001604052806003546001540181526020018581526020013373ffffffffffffffffffffffffffffffffffffffff168152602001848152602001600060405190808252806020026020018201604052801561026a5781602001602082028038833980820191505090505b508152509050806002600060035481526020019081526020016000206000820151816000015560208201518160010190805190602001906102ac92919061037d565b5060408201518160020160006101000a81548173ffffffffffffffffffffffffffffffffffffffff021916908373ffffffffffffffffffffffffffffffffffffffff160217905550606082015181600301908051906020019061031092919061037d565b50608082015181600401908051906020019061032d9291906103fd565b50905050505b505050565b6040518060a001604052806000815260200160608152602001600073ffffffffffffffffffffffffffffffffffffffff16815260200160608152602001606081525090565b828054600181600116156101000203166002900490600052602060002090601f016020900481019282601f106103be57805160ff19168380011785556103ec565b828001600101855582156103ec579182015b828111156103eb5782518255916020019190600101906103d0565b5b5090506103f99190610487565b5090565b828054828255906000526020600020908101928215610476579160200282015b828111156104755782518260006101000a81548173ffffffffffffffffffffffffffffffffffffffff021916908373ffffffffffffffffffffffffffffffffffffffff1602179055509160200191906001019061041d565b5b50905061048391906104ac565b5090565b6104a991905b808211156104a557600081600090555060010161048d565b5090565b90565b6104ec91905b808211156104e857600081816101000a81549073ffffffffffffffffffffffffffffffffffffffff0219169055506001016104b2565b5090565b90565b610416806104fe6000396000f3fe608060405234801561001057600080fd5b50600436106100415760003560e01c8063297f9af0146100465780635daf08ca14610064578063817cbfe5146100d2575b600080fd5b61004e61021f565b6040518082815260200191505060405180910390f35b6100906004803603602081101561007a57600080fd5b8101908080359060200190929190505050610225565b604051808273ffffffffffffffffffffffffffffffffffffffff1673ffffffffffffffffffffffffffffffffffffffff16815260200191505060405180910390f35b6100fe600480360360208110156100e857600080fd5b8101908080359060200190929190505050610261565b60405180858152602001806020018473ffffffffffffffffffffffffffffffffffffffff1673ffffffffffffffffffffffffffffffffffffffff16815260200180602001838103835286818151815260200191508051906020019080838360005b8381101561017a57808201518184015260208101905061015f565b50505050905090810190601f1680156101a75780820380516001836020036101000a031916815260200191505b50838103825284818151815260200191508051906020019080838360005b838110156101e05780820151818401526020810190506101c5565b50505050905090810190601f16801561020d5780820380516001836020036101000a031916815260200191505b50965050505050505060405180910390f35b60055481565b6004818154811061023257fe5b906000526020600020016000915054906101000a900473ffffffffffffffffffffffffffffffffffffffff1681565b6000602052806000526040600020600091509050806000015490806001018054600181600116156101000203166002900480601f0160208091040260200160405190810160405280929190818152602001828054600181600116156101000203166002900480156103135780601f106102e857610100808354040283529160200191610313565b820191906000526020600020905b8154815290600101906020018083116102f657829003601f168201915b5050505050908060020160009054906101000a900473ffffffffffffffffffffffffffffffffffffffff1690806003018054600181600116156101000203166002900480601f0160208091040260200160405190810160405280929190818152602001828054600181600116156101000203166002900480156103d75780601f106103ac576101008083540402835291602001916103d7565b820191906000526020600020905b8154815290600101906020018083116103ba57829003601f168201915b505050505090508456fea265627a7a7231582094ea1d20498e0b05276535170db7c34420969a0090c698316efabe6016c09e2d64736f6c6343000510003243545447435443474347474147414741474741474354414747414743435443474743434141544747474147434347474347545447545447474147474343414347474347474347434147434343434141414743474147434741414743544147474754434743434743434143544743434743414747414747434754474147474747415441414141414341545443414741544747434147415443414341475454545454434147415447474747545443435454434147415454434347544747414147435447435441414141415447434141475441414341434147414141414743544341434147415443414747544741544743414741415443435443474147545443544747434147435454544143414747414743474143545447414341415447544343435443414341434343435454434341474354414341544347414141435454544143435441414147434147544141414141474141474141545441415447434154544741414143414143545443414747544741474154475447435443414341544147414147434341414754544354415447414147414747544143415447414354544747414141474141414754415447434147434743544154414343414743435443544354545447414341414741474141474147414154545441544341434347474347415447545447414143434141434147415447434747414154434747414154474743414341475447414141415447414147414747414147414741414154544747435447474147414341544741414141475441414147544147544347544341434147414141414147434147434747434141434747435447414147414743434147415443434341414147474141545443434147414754544354474754545441434341544354544341474141415447544747414341544743544741475447414154544147544343414747414154415447415447414143434141544354544741414143414343544743414747415441545441414147544741414154545454435447414343435447474143414743435441544754435454545447544754544147414754544343414354545447414143434341414347414354414354545441434341414354434147544343544741434141414141434354414341414741544741414154434147414143434147415441414747435447415443434354545454434354545447414147475443435447414741545447544747414354475447414347474754475441435441545447414354474741414741414147474141414741415447545441435447544341414141434341544341414741414141414743414741414743415441414747475443474147474341435447545441474141434141545441434741414143414147544143434341415447414754434354545454544341414354544354544341415443434154544741414147434154434347474747415447474147414154434143544747415447414147415454435447414154544341434154544147434354435447415454545447414141545447474143414354545454544343475447414743474741544147544343434743474747435447544743544754414354544341435447474747414747434341544147414147415447415447414341415454545447414147414147475447414147414147474147414147414747414747414154544147414147475447414347414747414747474147414147414347414747415447415447434747414141545441414343434341414741414747414143434341474343414743434747434747414154474341414743414743414754414747414147434747414747434747475447434354474743414741434347474354475443474747414354434341474743435447544747474347474747434354434747544343545447434347434147434143414154434343475447474143414741474354544143544343415443544141435443475454545443414147544743415447415454545443414354545443414354545454434354545454544343545441545441545454544743545441414354544754414341475447474341414354474141415447434154545443414741414154414747414747545454434754434341474341434343544354474341474343545447475447434354475441474354435447474143545443434354474747434354545443434354475447474741474747434343544754414741434341434154434147474754474747475447474747475443414354544747434141414141474747434347414747544354474754474154475447475454434343414747415443544747414143435443544343434143434343544343544743414754544747414354474141545443545443434354545443415443434741414741414143434341435454474354475454544343414743434743544741415443544743544741475447544743414743435447434154434143435447435447544154474343474154434154435443414741414147474743544754475441474147544147474743434354475454435443435454414747415447545447435454435454474154545454545454545454545454545441474747475447474754434147474754544754474143414341434341474343434147475447414741474354474354474347474754434143435443415441545454415454544154434343545443545447434354475447414747414354474347474354545454434743544754474743544347544343545441414347545454435447414143434143435454474754474343435447414743414747414147415447544743434143545443435441474341474743474341414747434354475447434747414147414141434743434743544343435447434341434341474747435447414147415447434741474343434754434354434154474143474341474743474343414343435447435447434347474147434347474743545443474743414754435454435443434143544741474747414354474747435447474741414754434354474347545454434147544747414743475441544741474347544341414754434354474354545443544341475441474343434341545447434747474743434343414343415454434154434354475443544741414747544343544747475454544747544754474143434743545447474347474354474754474747544747474754545454434141475447474754474143474743474354435443434747434147434347474747415447474343475447544343474341435447414343414747434354475447474147414754474354434747434354414143435454414741414341434154545447544141435447414154414341475447545454544341415454544754414341474141544147545441474141544154544354415454414141475447475447414141434154544741475443414743",
  "source": "pragma solidity ^0.5.16;\n\ncontract Nabunomics {\n\n\t// Create a Genome container\n\tstruct Genome {\n\t\tuint id;\n\t\tstring seq;\n\t\taddress owner;\n\t\tstring source_type;\n\t\taddress[] shared;\n\t}\n\n\t// additions to mappings and address arrays changes state of contract.\n\t// changing state of contract means writing to blockchain\n\t\n\t// mapping of publically available genomes to be bid on via id\n\tmapping(uint => Genome) public pubGenomes;\n\tuint pubGenomesCount;\n\n\t// mapping of hidden genomes via id. Opt out of trading\n\tmapping(uint => Genome) private privGenomes;\n\tuint privGenomesCount;\n\n\t// pubGenomesCount + privGenomesCount == genomesCount;\n\n\t// list of addresses of entities that may request genomes\n\taddress[] public members;\n\tuint public membersCount;\n\n\n\t// voted event\n\t// keep for reference\n\t// event votedEvent (\n //        uint indexed _candidateId\n //    );\n\n\tconstructor() public {\n\t\tstring memory pew = \"CTTGCTCGCGGAGAGAGGAGCTAGGAGCCTCGGCCAATGGGAGCCGGCGTTGTTGGAGGCCACGGCGGCGCAGCCCCAAAGCGAGCGAAGCTAGGGTCGCCGCCACTGCCGCAGGAGGCGTGAGGGGATAAAAACATTCAGATGGCAGATCACAGTTTTTCAGATGGGGTTCCTTCAGATTCCGTGGAAGCTGCTAAAAATGCAAGTAACACAGAAAAGCTCACAGATCAGGTGATGCAGAATCCTCGAGTTCTGGCAGCTTTACAGGAGCGACTTGACAATGTCCCTCACACCCCTTCCAGCTACATCGAAACTTTACCTAAAGCAGTAAAAAGAAGAATTAATGCATTGAAACAACTTCAGGTGAGATGTGCTCACATAGAAGCCAAGTTCTATGAAGAGGTACATGACTTGGAAAGAAAGTATGCAGCGCTATACCAGCCTCTCTTTGACAAGAGAAGAGAATTTATCACCGGCGATGTTGAACCAACAGATGCGGAATCGGAATGGCACAGTGAAAATGAAGAGGAAGAGAAATTGGCTGGAGACATGAAAAGTAAAGTAGTCGTCACAGAAAAAGCAGCGGCAACGGCTGAAGAGCCAGATCCCAAAGGAATTCCAGAGTTCTGGTTTACCATCTTCAGAAATGTGGACATGCTGAGTGAATTAGTCCAGGAATATGATGAACCAATCTTGAAACACCTGCAGGATATTAAAGTGAAATTTTCTGACCCTGGACAGCCTATGTCTTTTGTGTTAGAGTTCCACTTTGAACCCAACGACTACTTTACCAACTCAGTCCTGACAAAAACCTACAAGATGAAATCAGAACCAGATAAGGCTGATCCCTTTTCCTTTGAAGGTCCTGAGATTGTGGACTGTGACGGGTGTACTATTGACTGGAAGAAAGGAAAGAATGTTACTGTCAAAACCATCAAGAAAAAGCAGAAGCATAAGGGTCGAGGCACTGTTAGAACAATTACGAAACAAGTACCCAATGAGTCCTTTTTCAACTTCTTCAATCCATTGAAAGCATCCGGGGATGGAGAATCACTGGATGAAGATTCTGAATTCACATTAGCCTCTGATTTTGAAATTGGACACTTTTTCCGTGAGCGGATAGTCCCGCGGGCTGTGCTGTACTTCACTGGGGAGGCCATAGAAGATGATGACAATTTTGAAGAAGGTGAAGAAGGAGAAGAGGAGGAATTAGAAGGTGACGAGGAGGGAGAAGACGAGGATGATGCGGAAATTAACCCCAAGAAGGAACCCAGCCAGCCGGCGGAATGCAAGCAGCAGTAGGAAGCGGAGGCGGGTGCCTGGCAGACCGGCTGTCGGGACTCCAGGCCTGTGGGCGGGGCCTCGGTCCTTGCCGCAGCACAATCCCGTGGACAGAGCTTACTCCATCTAACTCGTTTTCAAGTGCATGATTTTCACTTTCACTTTTCCTTTTTCCTTATTATTTTGCTTAACTTGTACAGTGGCAACTGAAATGCATTTCAGAAATAGGAGGTTTCGTCCAGCACCCTCTGCAGCCTTGGTGCCTGTAGCTCTGGACTTCCCTGGGCCTTTCCCTGTGGGAGGGCCCTGTAGACCACATCAGGGTGGGGTGGGGGTCACTTGGCAAAAAGGGCCGAGGTCTGGTGATGTGGTTCCCAGGATCTGGAACCTCTCCCACCCCTCCTGCAGTTGGACTGAATTCTTCCCTTTCATCCGAAGAAACCCACTTGCTGTTTCCAGCCGCTGAATCTGCTGAGTGTGCAGCCTGCATCACCTGCTGTATGCCGATCATCTCAGAAAGGGCTGTGTAGAGTAGGGCCCTGTTCTCCTTAGGATGTTGCTTCTTGATTTTTTTTTTTTTTTAGGGGTGGGTCAGGGTTGTGACACACCAGCCCAGGTGAGAGCTGCTGCGGGTCACCTCATATTTATTTATCCCTTCTTGCCTGTGAGGACTGCGGCTTTTCGCTGTGGCTCGTCCTTAACGTTTCTGAACCACCTTGGTGCCCTGAGCAGGAAGATGTGCCACTTCCTAGCAGGCGCAAGGCCTGTGCGGAAGAAACGCCGCTCCCTGCCACCAGGGCTGAAGATGCGAGCCCGTCCTCATGACGCAGGCGCCACCCTGCTGCCGGAGCCGGGCTTCGGCAGTCTTCTCCACTGAGGGACTGGGCTGGGAAGTCCTGCGTTTCAGTGGAGCGTATGAGCGTCAAGTCCTGCTTTCTCAGTAGCCCCATTGCGGGGCCCCACCATTCATCCTGTCTGAAGGTCCTGGGTTTGGTGTGACCGCTTGGCGGCTGGTGGGTGGGGTTTTCAAGTGGGTGACGGCGCTCTCCGGCAGCCGGGGATGGCCGTGTCCGCACTGACCAGGCCTGTGGAGAGTGCTCGGCCTAACCTTAGAACACATTTGTAACTGAATACAGTGTTTTCAATTTGTACAGAATAGTTAGAATATTCTATTAAAGTGGTGAAACATTGAGTCAGC\";\n\t\tstring memory source = \"homo sapien\";\n\t\tbool pub = true;\n\t\taddGenome(pew, source, pub);\n\t\t// addCandidate(\"Lying Larry\");\n\t\t// addCandidate(\"Cheating Charlie\");\n\t}\n\n\t// add genome to genome mapping\n\tfunction addGenome(string memory _seq, string memory _source, bool pub) private {\n\t\tif(pub) {\n\t\t\t++pubGenomesCount;\n\t\t\tGenome memory _genome = Genome(pubGenomesCount+privGenomesCount, \n\t\t\t\t_seq, msg.sender, _source, new address[](0));\n\t\t\tpubGenomes[pubGenomesCount] = _genome;\n\t\t} else {\n\t\t\t++privGenomesCount;\n\t\t\tGenome memory _genome = Genome(pubGenomesCount+privGenomesCount,\n\t\t\t\t_seq, msg.sender, _source, new address[](0));\n\t\t\tprivGenomes[privGenomesCount] = _genome;\n\t\t}\n\t}\n\n\t// Add candidates to candidates mapping\n\t// function addCandidate(string memory _name) private {\n\t// \t++candidatesCount;\n\t// \tcandidates[candidatesCount] = Candidate(candidatesCount, _name, 0);\n\t// }\n\n\t// function vote(uint _candidateId) public {\n\t// \t// check for voted before\n\t// \trequire(!voters[msg.sender]);\n\t// \t// check for valid candidate\n\t// \trequire(_candidateId > 0 && _candidateId <= candidatesCount); \n\t// \t// record that voter has voted\n\t// \t// metadata that gets passed (msg), account from which function call sent (sender)\n\t// \tvoters[msg.sender] =true;\n\t// \t// update candidate voteCount\n\t// \tcandidates[_candidateId].voteCount++;\n\t// }\n}",
  "sourcePath": "/Users/wbarakzai/Documents/1.Spring20/Nabunomics/dev/contracts/Nabunomics.sol",
  "compiler": {
    "name": "solc",
    "version": "0.5.16+commit.9c3226ce.Emscripten.clang"
  },
  "schemaVersion": "3.0.23",
  "updatedAt": "2020-03-02T22:30:03.133Z",
  "networkType": "ethereum",
  "devdoc": {
    "methods": {}
  },
  "userdoc": {
    "methods": {}
  }
}